:100000000C9446000C9465000C9465000C946500FB
:100010000C9465000C9465000C9465000C946500CC
:100020000C9465000C9465000C9465000C946500BC
:100030000C9465000C94E9000C9465000C94650028
:100040000C9465000C9465000C9465000C9465009C
:100050000C9465000C9465000C9465000C9465008C
:100060000C9465000C9465000C9465000C9465007C
:100070000C9465000C9465000C9465000C9465006C
:100080000C9465000C9465000C94650011241FBE4F
:10009000CFEFD0E4DEBFCDBF11E0A0E0B1E0EEEBEA
:1000A000F2E000E00BBF02C007900D92A231B10751
:1000B000D9F721E0A2E1B1E001C01D92A931B20758
:1000C000E1F70E9449010C945D010C940000CF936C
:1000D000C82F8A3019F48DE00E9467008091C0001B
:1000E00085FFFCCFC093C60080E090E0CF910895DB
:1000F00080911701909118018130910571F030F0D5
:100100008230910589F00397B1F01CC081E090E046
:10011000909318018093170119C082E090E09093AA
:1001200018018093170112C083E090E090931801AA
:10013000809317010BC081E090E0909318018093A9
:10014000170104C010921801109217018091170135
:10015000909118018230910549F08330910551F05A
:10016000019759F485B181E085B9089585B182E0A0
:1001700085B9089585B184E085B908958BE08093B1
:1001800081008DE790E0909389008093880082E061
:1001900080936F001092850010928400809100017E
:1001A00090910101A0910201B0910301809312018D
:1001B00090931301A0931401B09315018FB7806839
:1001C0008FBF089510928100089581E080931601F9
:1001D00008951F920F920FB60F9211240BB60F9233
:1001E0002F933F934F935F936F937F938F939F933F
:1001F000AF93BF93EF93FF938091120190911301FE
:10020000A0911401B09115010197A109B109809342
:10021000120190931301A0931401B0931501892B3F
:100220008A2B8B2B91F40E94E50080910001909124
:100230000101A0910201B0910301809312019093FA
:100240001301A0931401B0931501FF91EF91BF9199
:10025000AF919F918F917F916F915F914F913F915E
:100260002F910F900BBE0F900FBE0F901F901895FF
:100270006093000170930101809302019093030148
:1002800060931201709313018093140190931501F0
:1002900008958FEF84B915B868EE73E080E090E0C0
:1002A0000E9438010E94BE000E94780080911601D1
:0E02B0008823E1F310921601F7CFF894FFCFE8
:1002BE0001000000000000020000000067000000C6
:0202CE0000002E
:00000001FF
