:100000000C944D000C946C000C946C000C946C00DF
:100010000C946C000C946C000C946C000C946C00B0
:100020000C946C000C946C000C946C000C946C00A0
:100030000C946C000C9435020C946C000C946C00C5
:100040000C946C000C946C000C946C000C946C0080
:100050000C946C000C946C000C946C000C946C0070
:100060000C946C000C946C000C946C000C946C0060
:100070000C946C000C946C000C946C000C946C0050
:100080000C946C000C946C000C946C008D0094002B
:10009000B700DA0024014701910111241FBECFEF00
:1000A000D0E4DEBFCDBF11E0A0E0B1E0ECE6F5E0CA
:1000B00000E00BBF02C007900D92A431B107D9F741
:1000C00021E0A4E1B1E001C01D92AD31B207E1F73A
:1000D0000E9495020C94B4020C940000CF93C82F98
:1000E0008A3019F48DE00E946E008091C00085FF77
:1000F000FCCFC093C60080E090E0CF91089580B11E
:100100008095E0911B01F0911C01E730F10508F0AA
:100110002BC1EA5BFF4F0C94AB0281E090E090931F
:100120001C0180931B0124C18370813039F482E06B
:1001300090E090931C0180931B011AC1823039F426
:1001400084E090E090931C0180931B0111C18330E7
:1001500039F486E090E090931C0180931B0108C164
:1001600081E090E090931C0180931B0101C183709A
:10017000813039F483E090E090931C0180931B015F
:10018000F7C0823039F484E090E090931C018093B2
:100190001B01EEC0833039F486E090E090931C019F
:1001A00080931B01E5C081E090E090931C01809357
:1001B0001B01DEC08370813071F4209114013091F5
:1001C00015012A30310538F483E090E090931C014A
:1001D00080931B01CDC0813091F4209114013091A6
:1001E00015012A30310559F41092150110921401AD
:1001F00082E090E090931C0180931B01B9C0823093
:1002000059F4109215011092140184E090E090933B
:100210001C0180931B01ACC0833059F4109215016E
:100220001092140186E090E090931C0180931B01D2
:100230009FC0109215011092140181E090E09093FC
:100240001C0180931B0194C08370813039F482E0DB
:1002500090E090931C0180931B018AC0823039F496
:1002600085E090E090931C0180931B0181C0833056
:1002700039F486E090E090931C0180931B0178C0D4
:1002800081E090E090931C0180931B0171C083700A
:10029000823071F420911401309115012A3031051A
:1002A00038F485E090E090931C0180931B0160C0BE
:1002B000823091F420911401309115012A303105DA
:1002C00059F4109215011092140184E090E090937B
:1002D0001C0180931B014CC0813059F41092150110
:1002E0001092140182E090E090931C0180931B0116
:1002F0003FC0833059F4109215011092140186E02A
:1003000090E090931C0180931B0132C01092150164
:100310001092140181E090E090931C0180931B01E6
:1003200027C08370833039F486E090E090931C01FD
:1003300080931B011DC0813039F482E090E09093DE
:100340001C0180931B0114C0823039F484E090E0DA
:1003500090931C0180931B010BC081E090E090936F
:100360001C0180931B0104C010921C0110921B0100
:1003700080911B0190911C018330910511F130F4A3
:100380008130910551F0029761F008958530910513
:1003900089F108F10697C1F108958091000185B9AE
:1003A000089580910001909101018930910529F013
:1003B000019690930101809300018091000185B91D
:1003C0000895809114019091150101969093150163
:1003D000809314010895809100019091010100978C
:1003E00029F0019790930101809300018091000111
:1003F00085B908958091140190911501019690930B
:1004000015018093140108951092010110920001CA
:1004100015B808958BE0809381008DE790E090936C
:1004200089008093880082E080936F00109285009D
:10043000109284008091020190910301A091040127
:10044000B09105018093160190931701A0931801B4
:10045000B09319018FB780688FBF08951092810003
:10046000089581E080931A0108951F920F920FB6AC
:100470000F9211240BB60F922F933F934F935F93DC
:100480006F937F938F939F93AF93BF93EF93FF935C
:100490008091160190911701A0911801B091190156
:1004A0000197A109B1098093160190931701A093B8
:1004B0001801B0931901892B8A2B8B2B91F40E9480
:1004C00031028091020190910301A0910401B09149
:1004D00005018093160190931701A0931801B09322
:1004E0001901FF91EF91BF91AF919F918F917F91F2
:1004F0006F915F914F913F912F910F900BBE0F9095
:100500000FBE0F901F901895609302017093030126
:100510008093040190930501609316017093170175
:100520008093180190931901089511B88FEF82B943
:1005300084B915B864E670E080E090E00E9484021F
:100540000E940A020E947F0080911A018823E1F331
:1005500010921A01F7CFEE0FFF1F0024001C0BBEF4
:0C0560000790F691E02D0994F894FFCF6D
:10056C0007000100000000000002000000006E0007
:04057C00000000007B
:00000001FF
