:100000000C9446000C9465000C9465000C946500FB
:100010000C9465000C9465000C9465000C946500CC
:100020000C9465000C9465000C9465000C946500BC
:100030000C9465000C9448010C9465000C946500C8
:100040000C9465000C9465000C9465000C9465009C
:100050000C9465000C9465000C9465000C9465008C
:100060000C9465000C9465000C9465000C9465007C
:100070000C9465000C9465000C9465000C9465006C
:100080000C9465000C9465000C94650011241FBE4F
:10009000CFEFD0E4DEBFCDBF11E0A0E0B1E0E0E8FB
:1000A000F3E000E00BBF02C007900D92A431B1074E
:1000B000D9F721E0A4E1B1E001C01D92AB31B20754
:1000C000E1F70E94A8010C94BE010C940000CF93AC
:1000D000C82F8A3019F48DE00E9467008091C0001B
:1000E00085FFFCCFC093C60080E090E0CF910895DB
:1000F00080B1282F20958091190190911A018230AA
:10010000910531F128F4009761F0019789F06DC0F5
:100110008430910509F449C0C0F1059709F455C030
:1001200064C081E090E090931A018093190161C04E
:1001300020FF07C084E090E090931A01809319019A
:1001400058C082E090E090931A018093190151C049
:1001500020FF07C084E090E090931A01809319017A
:1001600048C08091000190910101019739F483E02A
:1001700090E090931A01809319013BC081E090E0D8
:1001800090931A018093190134C020FF07C084E0C6
:1001900090E090931A01809319012BC082E090E0C7
:1001A00090931A018093190124C020FF07C084E0B6
:1001B00090E090931A01809319011BC085E090E0B4
:1001C00090931A018093190114C020FF07C081E0A9
:1001D00090E090931A01809319010BC085E090E0A4
:1001E00090931A018093190104C010921A01109281
:1001F00019018091190190911A018230910579F0CD
:100200008330910581F00197B9F481E090E09093FB
:1002100001018093000185B181E085B9089585B120
:1002200082E085B9089582E090E090930101809387
:10023000000185B184E085B908958BE08093810049
:100240008DE790E0909389008093880082E080930E
:100250006F001092850010928400809102019091AD
:100260000301A0910401B0910501809314019093C2
:100270001501A0931601B09317018FB780688FBF47
:10028000089510928100089581E0809318010895E7
:100290001F920F920FB60F9211240BB60F922F934D
:1002A0003F934F935F936F937F938F939F93AF93FE
:1002B000BF93EF93FF938091140190911501A0914A
:1002C0001601B09117010197A109B109809314019A
:1002D00090931501A0931601B0931701892B8A2BD7
:1002E0008B2B91F40E9444018091020190910301B3
:1002F000A0910401B0910501809314019093150120
:10030000A0931601B0931701FF91EF91BF91AF91A8
:100310009F918F917F916F915F914F913F912F911D
:100320000F900BBE0F900FBE0F901F90189560930B
:10033000020170930301809304019093050160937F
:10034000140170931501809316019093170108957D
:1003500011B88FEF82B984B915B86CE271E080E012
:1003600090E00E9497010E941D010E9478008091F8
:1003700018018823E1F310921801F7CFF894FFCF0A
:100380000100010000000000000200000000670002
:040390000000000069
:00000001FF
